:020000040800F2
:10000000600A002045010008290D000809070008C2
:10001000E10C000853020008811B000800000000EA
:10002000000000000000000000000000F9130008BC
:10003000F903000800000000F11000087515000821
:100040005F0100085F0100085F0100085F01000810
:100050005F0100085F0100085F0100085F01000800
:100060005F0100085F0100085F0100085F010008F0
:100070005F0100085F0100085F0100085F010008E0
:100080005F0100085F0100085F0100085F010008D0
:10009000851A00085F0100085F0100085F01000881
:1000A0005F0100085F0100085F0100085F010008B0
:1000B000211600085F0100085F0100085F010008C9
:1000C0005F0100085F0100085F0100085F01000890
:1000D0005F010008A91700085F0100085F01000820
:1000E0005F0100085F0100085F0100085F01000870
:1000F0005F0100085F0100085F0100085F01000860
:100100005F0100085F0100085F0100085F0100084F
:100110005F0100085F0100085F0100085F0100083F
:100120005F0100085F0100085F0100085F0100082F
:10013000DFF80CD000F05CF8004800477D23000891
:10014000600A00200648804706480047FEE7FEE7B1
:10015000FEE7FEE7FEE7FEE7FEE7FEE7FEE7FEE777
:10016000791500083101000840EA01039B0703D01C
:1001700009E008C9121F08C0042AFAD203E011F8E6
:10018000013B00F8013B521EF9D270472DE9F05FA8
:100190000546002092469B468846064681464024F6
:1001A0001BE0284641464746224600F042F85346A7
:1001B0005A46C01A914110D311461846224600F003
:1001C00029F82D1A67EB01084F462246012000212D
:1001D00000F020F817EB00094E41201EA4F10104A5
:1001E000DFDC484631462A464346BDE8F09F000022
:1001F000064C074D06E0E06840F0010394E8070074
:1002000098471034AC42F6D3FFF796FF6C260008EF
:100210008C260008202A04DB203A00FA02F1002094
:1002200070479140C2F1200320FA03F31943904034
:100230007047202A04DB203A21FA02F0002170479F
:1002400021FA02F3D040C2F120029140084319463E
:10025000704700BFFEE710B500F5D87303EB01133C
:100260001B6803F004031372137A53B900F5D873B3
:1002700003EB01131B6840F2FF7404EA535313604D
:1002800009E000F5D87303EB01131B686FF06044BD
:1002900004EAD303536000F5D87303EB01131B6822
:1002A00003F00203537200F5D87303EB01135B688C
:1002B00003F00F03937200F5D87303EB01135B682F
:1002C0001B0AD37400F5D87303EB01139B68D37238
:1002D00000F5D87303EB01139B681C0A147300F537
:1002E000D87303EB01139B681C0C547300F5D8738F
:1002F00003EB01139B681B0E937300F5D87303EB9C
:100300000113DB68D37300F5D87303EB0113DB68CB
:100310001C0A147400F5D87303EB0113DB681C0C82
:10032000547400F5D87303EB0113DB681B0E937450
:1003300021B9C36843F02003C36003E0036943F0BD
:100340002003036110BD000070B502460C46FF2576
:10035000FF2309E012F8010B80EA05010648405C22
:1003600080EA03050548435C201EA4F10106B4B2EF
:10037000F0D143EA052070BD6A2400086A25000810
:1003800070B505460C460026284600F04FFF06468D
:1003900026EA0401284601F0F5FB70BD08B50820E7
:1003A000ADF8000004208DF803006946014800F014
:1003B0008FF808BD0008014010B50121042000F0AD
:1003C000BBFE00F007F80821014800F060F910BDFD
:1003D0000008014008B50820ADF8000003208DF8A2
:1003E000020010208DF803006946024800F070F802
:1003F00008BD0000000801407047000000212349AB
:100400008279002A3AD00A46126803689A430B465A
:100410001A600A1D126803689A430B1D1A6002795C
:1004200011440A6803681A430A60184A08321268BD
:1004300003689A43154B08331A601A1D1268036843
:100440009A43124B0C331A604279102A0ED11A1FAC
:10045000126803681A430D4B08331A601A1D12689C
:1004600003681A43094B0C331A600DE007494279BF
:1004700011440A6803681A430A6005E002791144CE
:100480000A6803689A430A6070470000000401404C
:1004900030B500228B071C0F0F2303FA04F20B4B1D
:1004A0008C1053F824309343084C8D1044F82530B9
:1004B00023468C1053F824308C07240F00FA04F4E0
:1004C0002343024C8D1044F8253030BD0800014014
:1004D0002DE9F041024600250026002000230024DB
:1004E000002791F803C00CF00F0591F803C00CF041
:1004F000100CBCF1000F03D091F802C04CEA0505C6
:1005000091F800C0BCF1000F31D0146800202BE03E
:100510004FF0010C0CFA00F3B1F800C00CEA03062E
:100520009E4220D183004FF00F0C0CFA03F7BC431E
:1005300005FA03FC4CEA040491F803C0BCF1280F4F
:1005400006D14FF0010C0CFA00FCC2F814C00AE00E
:1005500091F803C0BCF1480F05D14FF0010C0CFA23
:1005600000FCC2F810C0401C0828D1D31460B1F8B8
:1005700000C0BCF1FF0F34DD546800202EE000F114
:10058000080C4FF0010808FA0CF3B1F800C00CEAAF
:1005900003069E4221D183004FF00F0C0CFA03F7A3
:1005A000BC4305FA03FC4CEA040491F803C0BCF117
:1005B000280F05D100F1080C08FA0CF8C2F81480D5
:1005C00091F803C0BCF1480F07D100F1080C4FF0BF
:1005D000010808FA0CF8C2F81080401C0828CED395
:1005E0005460BDE8F0810000F0B50A460023002405
:1005F0000021002500F00046B6F1004F02D11D4E4B
:10060000F16901E01B4E7168C0F3034583B200F449
:100610004016B6F5401F08D121F07061154E76687E
:1006200026F07066134F7E6012E000F48016B6F577
:10063000801F06D1032606FA05F4A14341F070613C
:1006400006E0460D360103FA06F6B14341F070614B
:1006500022B1460D360103FA06F6314300F000469A
:10066000B6F1004F02D1034EF16101E0014E71601D
:10067000F0BD0000000001400246002093680B40DE
:100680000BB1012000E0002070474161704701611B
:100690007047000010B5014600200A2926D2DFE885
:1006A00001F0050D1517191B1D1F2123124A127881
:1006B000124B1B780A2404FB03201AE0104A12781C
:1006C000104B1B780A2404FB032012E00D2010E0DD
:1006D00004200EE037200CE006200AE0072008E0A6
:1006E000082006E0452004E0642002E04FF6FF7099
:1006F00000BF00BF10BD0000270000202600002022
:10070000290000202800002000BFFEE770B5044645
:1007100000F0C6F8204600F095F800F01FF80546F6
:1007200000F0D8F8284670BD08B50121082000F077
:1007300003FDC020ADF8000003208DF8020010205A
:100740008DF8030069460448FFF7C2FEC021024845
:10075000FFF79DFF08BD0000000C014010B500240C
:1007600000F082FD802010490860042001F0D8FBD1
:1007700040200D490860042001F0D2FB07E0601C16
:10078000C4B2FA2C03DD00F0A5F8012010BD064824
:100790000838006800F080000028F0D140200249AD
:1007A000091D08600020F1E7100C014070B500251C
:1007B000002400F059FD00BF1AE0052001F0B0FB55
:1007C00040200D490860052001F0AAFB6006040ED8
:1007D00009480838006800F0800008B144F00104BE
:1007E00040200549091D0860052001F099FB6D1C9A
:1007F000082DE2DB204670BD100C014010B5044608
:1008000000F044FD40200E490860082001F088FBFC
:1008100024B180200A49091F086002E080200849AD
:10082000086040200649091F0860082001F078FB95
:10083000402003490860082001F072FB10BD000051
:10084000140C014070B5044600F020FD402013490F
:10085000086000251EE004F0800020B180200F49D0
:10086000091F086002E080200C4908606006040E41
:10087000052001F055FB40200849091F08600520AC
:1008800001F04EFB402005490860052001F048FBBF
:10089000681CC5B2082DDEDB70BD0000140C0140E1
:1008A00010B500F0F3FC8020094908604020086082
:1008B000082001F035FB80200549091D086008204B
:1008C00001F02EFB40200249091D086010BD000008
:1008D000100C014010B500F0D9FC802007490860D9
:1008E0004020091F0860082001F01AFB80200349FE
:1008F000091F0860082001F013FB10BD140C014013
:100900000EB50121092000F017FC3020ADF80800D9
:1009100048208DF80B0002A91448FFF7D9FD0521E6
:100920000120FFF7B5FD2020009000208DF8040085
:1009300008208DF8050001208DF806006846FFF7B5
:100940005DFD04210120FFF7A3FD10200090002091
:100950008DF8040008208DF8050001208DF80600B0
:100960006846FFF74BFD00F0E0F90EBD000C0140BA
:1009700008B501210C2000F0DFFB4FF44070ADF80A
:10098000000003208DF8020010208DF80300694656
:100990000A48FFF79DFD4FF48070ADF8000003207A
:1009A0008DF8020010208DF8030069460448FFF717
:1009B0008FFD01210348FFF717FE08BD000C014021
:1009C000000801400004300070B505460C460026C2
:1009D00025B1012D1CD0022D4ED133E02CB94FF49E
:1009E00080712748FFF753FE10E0012C04D121024B
:1009F0002348FFF74AFE09E0022C07D120480C30BB
:100A0000006880F480701E490C310860012634E0D3
:100A10002CB94FF400711A48FFF739FE10E0012C91
:100A200004D161021648FFF730FE09E0022C07D11D
:100A300013480C30006880F4007011490C310860D4
:100A400001261AE02CB94FF480710E48FFF71FFE03
:100A500010E0012C04D121020A48FFF716FE09E03C
:100A6000022C07D107480C30006880F480700549DB
:100A70000C310860012600E000BF00BF304670BDA9
:100A8000000C01400008014010B50446412C25D15E
:100A900008210846FFF774FC3D21112001F072F88F
:100AA0008621172001F06EF87F21262001F06AF8D8
:100AB0001E212D2001F066F800212C2001F062F8A3
:100AC0008D212A2001F05EF83E212B2001F05AF8FA
:100AD0000A2001F007FA00F0C3FA01E0FF2010BD80
:100AE0000020FCE770B500240025002600201C49EA
:100AF00081F80201012081F803010846417880F85D
:100B0000041140791649097900EB01204006010ED5
:100B1000134880F80511014691F8050100EBD071EA
:100B20004D1000BF10E02046FFF7B4FD0646310A25
:100B3000032000EB44020B488154042000EB4402E4
:100B400008488654601CC4B2AC42ECDB6800C01C90
:100B5000C1B2044800F0A0F800F006F870BD000033
:100B6000560200205903002000BF0021074890F8DA
:100B7000FF2090F8FF00401E044B83F8FF0018464A
:100B8000815490F8FF000028EFD1704756020020F2
:100B90002DE9F04105460027104800F03DF81048C7
:100BA0000078A84202D0FFF7DFFF00BF0C4890F8A2
:100BB000FF0008280EDB06210948FFF7C5FB0446A5
:100BC0000748C0790649897900EB012086B2B44212
:100BD00000D108273846BDE8F08100003000002031
:100BE000560200200B4991F8FF100A4A5054114652
:100BF00091F8FF10491C82F8FF10114691F8FF1080
:100C0000FF2291FBF2F302FB1311024A82F8FF105C
:100C1000704700005602002070B50022438B082B5D
:100C200002DB164B1B8803B970BDC38A448B1B1BA8
:100C3000FF33FF2493FBF4F504FB1533DAB20021F4
:100C400014E05318FF2493FBF4F504FB1533846878
:100C5000E45C0B4B93F8FF5093F8FF305B1C084E9D
:100C600086F8FF3033465C554B1CD9B2438B8B4220
:100C7000E7DC0023438300BFD6E700002400002008
:100C80005602002070B504460D46164632462946E7
:100C9000204600F0EEFD70BD70B5C0B005460C46B4
:100CA00022462946684601F0D3FB21462846FFF735
:100CB0004BFB064632122046611CCCB20DF80020D8
:100CC000F2B22046611CCCB20DF8002022466946E3
:100CD0000248FFF7D7FF40B070BD00003000002091
:100CE00000BFFEE710B500240120FFF751FF0828E0
:100CF00004D00320094981F8020110BD0748447857
:100D0000032C02D1FFF7EEFE04E00120034981F835
:100D1000020100BF00BF00BFEFE700005602002045
:100D200010B5FFF7DFFF10BD704708B54FF4C06086
:100D300000F048F817208DF8000000208DF8010021
:100D400001208DF802008DF80300684600F002F8DB
:100D500008BD000070B5002100230F22C47804B341
:100D6000154C246804F4E064C4F5E064210AC1F180
:100D70000403CA40447804FA03F184781440214300
:100D800009010E4C0678A155047804F01F050124D2
:100D9000AC4005786D11AD0005F1E025C5F80041C6
:100DA00009E0047804F01F050124AC40044D0678E6
:100DB000761145F8264070BD0CED00E000E400E03F
:100DC00080E100E002490143024A116070470000DF
:100DD0000000FA050CED00E008B54FF4E060FFF705
:100DE000F1FF25208DF8000000208DF80100012082
:100DF0008DF802008DF803006846FFF7ABFF08BDD1
:100E000070B50646002419E004F1B001C8B2002113
:100E100000F0F0F80021022000F0ECF80021102092
:100E200000F0E8F8002505E00121304600F0E2F886
:100E3000681CC5B2802DF7DB601CC4B2082CE3DB54
:100E400070BD000008B50121142000F075F9F020F4
:100E5000ADF8000003208DF8020010208DF803008B
:100E600069460848FFF734FB1020ADF80000032066
:100E70008DF8020010208DF8030069460248FFF744
:100E800027FB08BD000801400010014010B5FFF726
:100E9000D9FF10214948FFF7F8FB642001F022F840
:100EA00010214648FFF7F3FB0A2001F01BF8102140
:100EB0004348FFF7ECFB0A2001F014F810214048EA
:100EC000FFF7E3FBC82001F00DF80021AE2000F091
:100ED00091F80021084600F08DF80021102000F064
:100EE00089F80021402000F085F80021812000F0E1
:100EF00081F80021CF2000F07DF80021A12000F032
:100F000079F80021C82000F075F80021A62000F033
:100F100071F80021A82000F06DF800213F2000F0BA
:100F200069F80021D32000F065F80021084600F0A0
:100F300061F80021D52000F05DF80021802000F04C
:100F400059F80021D92000F055F80021F12000F0D7
:100F500051F80021DA2000F04DF80021122000F0B5
:100F600049F80021DB2000F045F80021402000F086
:100F700041F80021202000F03DF80021022000F07F
:100F800039F800218D2000F035F80021142000F000
:100F900031F80021A42000F02DF80021A62000F057
:100FA00029F80021AF2000F025F8FF20FFF728FFE7
:100FB0000021084600F006F810BD000000100140B6
:100FC0000008014070B504460D4605F1B001C8B2F5
:100FD000002100F00FF8102141EA1410002100F068
:100FE00009F804F00F0141F00100002100F002F8BF
:100FF00070BD00002DE9F04104460D46082600278B
:1010000025B940211248FFF740FB03E0402110487A
:10101000FFF73DFB002617E020210D48FFF735FBC9
:1010200004F0800727B980210948FFF72EFB03E071
:1010300080210748FFF72BFB6006040E202104489F
:10104000FFF725FB701CC6B2082EE5DBBDE8F0817A
:101050000008014010B503211420FFF791F910BDDD
:1010600010B5142000F0E2F8044604F0030018B9AB
:101070000321142000F0E8F910BD000010B5402154
:101080001A48FFF704FB012000F04AFF40211748EF
:10109000FFF7FBFA012000F043FF40211348FFF760
:1010A000F6FA012000F03CFF0F21012000F06AFD5C
:1010B000012000F035FF3D21112000F063FD1E21CD
:1010C0002D2000F05FFD00212C2000F05BFD8D2124
:1010D0002A2000F057FD3E212B2000F053FD402137
:1010E000152000F04FFD002010BD00000010014051
:1010F000704710B500F0FAF8FFF7C0FFFFF7AAFF3E
:10110000FFF7AEFF4120FFF7BFFC642000F0EAFECE
:10111000642000F0E7FE10BD29B1064AD2690243FF
:10112000044BDA6104E0034AD2698243014BDA617D
:10113000704700000010024029B1064A926902433C
:10114000044B9A6104E0034A92698243014B9A611D
:10115000704700000010024030B50021002200243A
:1011600000232D4D6D6805F00C0121B1042905D037
:10117000082923D105E0294D056022E0274D0560AF
:101180001FE0254D6D6805F47012234D6D6805F460
:101190008034022505EB92421CB9214D5543056070
:1011A0000BE01D4D6D6805F400351DB11C4D554318
:1011B000056002E0194D5543056002E0174D0560DA
:1011C00000BF00BF144D6D6805F0F0010909154D11
:1011D0006B5C0568DD4045600F4D6D6805F4E061AE
:1011E000090A104D6B5C4568DD4085600A4D6D68ED
:1011F00005F46051C90A0B4D6B5C4568DD40C56064
:10120000054D6D6805F44041890B074D6B5CC56861
:10121000B5FBF3F5056130BD0010024000127A0005
:1012200000093D00000000201000002070B50446B9
:1012300000264FF480510B48FFF727FA7E2000EA82
:10124000440040F08005284600F036F8002000F009
:1012500033F806464FF480510248FFF718FA30463B
:1012600070BD0000000C014008B58020ADF8000002
:1012700048208DF8030069460348FFF729F98021CB
:101280000148FFF704FA08BD000C014008B58020B2
:10129000ADF8000003208DF8020010208DF8030047
:1012A00069460448FFF714F980210248FFF7EFF977
:1012B00008BD0000000C0140014600BF0A4800883C
:1012C00000F002000028F9D00748001D018000BF8F
:1012D0000548008800F001000028F9D00248001DF0
:1012E0000088C0B2704700000838004000B587B0E1
:1012F00001211920FFF720FF01218803FFF70CFFD0
:101300004FF48050ADF8040003208DF80600102043
:101310008DF8070001A92048FFF7DAF84FF4604084
:10132000ADF8040018208DF8070001A91A48FFF74E
:10133000CFF84020ADF8040003208DF806001020FF
:101340008DF8070001A91548FFF7C2F80020ADF895
:1013500008004FF48270ADF80A000020ADF80C00D0
:10136000ADF80E00ADF810004FF40070ADF81200AB
:101370001020ADF814000020ADF816000720ADF8DD
:10138000180002A9064800F019F80121044800F0ED
:1013900009F807B000BD0000000C0140001001403A
:1013A0000038004021B1028842F04002028004E08F
:1013B00002884FF6BF731A400280704710B50022B2
:1013C000028802F441520B884C8823438C882343C3
:1013D000CC8823430C8923434C8923438C892343A2
:1013E000CC8923431A430280838B4FF2FF7423403E
:1013F00083830B8A038210BD7047000010B504463A
:101400004FF0E020006920F004004FF0E021086177
:101410006FF0040000F09AF8E11704EB5171C1F38A
:10142000C701074A11701046007800EB4001C1EB7C
:10143000C0104FF6FF7101EAC0000249088010BDDC
:101440001E0000202000002070B505460C46002636
:101450002846FFF7EBFE064646EA0401284600F060
:1014600091FB70BD10B500F001F810BD0CB5002067
:10147000019000903348006840F4803031490860A2
:1014800000BF3048006800F4003000900198401C14
:101490000190009818B90198B0F5A06FF1D12948D2
:1014A000006800F4003010B10120009001E000203D
:1014B00000900098012843D12348006840F01000B4
:1014C000214908600846006820F0030008600846CB
:1014D000006840F0020008601A48406819494860F6
:1014E0000846406848600846406840F480604860AC
:1014F0000846406820F47C1048600846406840F484
:10150000E81048600846006840F08070086000BF3E
:101510000C48006800F000700028F9D009484068C5
:1015200020F00300074948600846406840F0020088
:10153000486000BF0348406800F00C000828F9D15B
:101540000CBD00000010024000200240042808D119
:101550004FF0E021096941F004014FF0E0221161F0
:1015600007E04FF0E021096921F004014FF0E0228B
:10157000116170477047000010B51348006840F0D3
:1015800001001149086008464068104908400E49AA
:101590004860084600680E4908400B490860084644
:1015A000006820F4802008600846406820F4FE00AF
:1015B00048604FF41F008860FFF754FF4FF0006051
:1015C0000449086010BD0000001002400000FFF850
:1015D000FFFFF6FE08ED00E00EB501210846FFF71B
:1015E0009BFD41F61F40ADF800000920ADF8040056
:1015F0000020ADF80600ADF8020069464FF08040CB
:1016000000F080F801221146900700F071F80121E6
:10161000880700F04AF80121880700F04CF80EBD59
:1016200010B50121880700F052F800B31048018876
:101630000088401C0E4A1080B1F57A7F05D1012048
:101640000C4908700020114608800B48018800886A
:10165000401C094A10800A2905DB0120074908803F
:101660000A20114608800121880700F021F810BDEA
:10167000140000202200002016000020240000207A
:1016800010B5FFF7A9FF00F001F810BD08B51C2048
:101690008DF8000001208DF801008DF802008DF812
:1016A00003006846FFF756FB08BDCA430282704735
:1016B000CA430282704721B1028842F001020280CF
:1016C00004E002884FF6FE731A400280704730B57E
:1016D0000246002000230024158A05EA01039589AB
:1016E00005EA010413B10CB1012000E0002030BD77
:1016F0001AB183890B43838102E083898B43838101
:1017000070470000002202881D4B98420ED01D4BEE
:1017100098420BD0B0F1804F08D01B4B984205D0B7
:101720001A4B984202D01A4B984204D14FF68F734D
:101730001A404B881A43174B984207D0164B9842D1
:1017400004D04FF6FF431A40CB881A4302808B889F
:1017500083850B8803850A4B98420BD0094B98422E
:1017600008D00E4B984205D00D4B984202D00D4B3D
:10177000984201D10B7A03860123838270470000CF
:10178000002C0140003401400004004000080040EB
:10179000000C0040001000400014004000400140D8
:1017A000004401400048014010B5024800F0A2F991
:1017B00010BD00003000002000B585B00121880375
:1017C000FFF7BAFC01210420FFF7B6FC4FF40070CC
:1017D000ADF8100018208DF8130003208DF81200CA
:1017E00004A91A48FEF774FE4FF48060ADF81000AB
:1017F00004208DF8130004A91448FEF769FE4FF485
:10180000E13000900020ADF80400ADF80600ADF81E
:101810000800ADF80C000C20ADF80A0069460C4831
:1018200000F0BAF8012240F22551094800F08EF884
:101830000121074800F047F84021054800F02BF847
:10184000FFF7CAFA00F07EF905B000BD00080140BC
:101850000038014070B504460D462946206800F066
:101860000CF900BF4021206800F039F80128F9D1B7
:1018700070BD2DE9F04107460D461646002400BF15
:1018800005E0295D3846FFF7E5FF601CC4B2B442AD
:10189000F7DBBDE8F08101F40072B2F5007F00D102
:1018A00000BFCA430280704710B50022002340F6F3
:1018B0006A14A14200D100BF0A1201249440A3B2CD
:1018C000DC43048010BD21B1828942F40052828140
:1018D00004E082894DF6FF731A4082817047024608
:1018E0000020B1F5007F00D100BF13880B400BB181
:1018F000012000E00020704770B50246002400235C
:101900000025002040F66A16B14200D100BFC1F3A5
:10191000421501F01F03012606FA03F3012D02D13F
:101920009689334006E0022D02D1168A334001E049
:10193000968A33400C12012606FA04F416883440C5
:1019400013B10CB1012000E0002070BDF0B50346DA
:10195000002400260025002040F66A17B94200D175
:1019600000BF1846C1F3421401F01F06012707FA11
:1019700006F5012C01D10C3004E0022C01D110300D
:1019800000E014301AB107682F43076002E00768CF
:10199000AF430760F0BD00002DE9F04786B0054673
:1019A0000E460024A24600BFA1460027B08900B120
:1019B00000BF2F462C8A4CF6FF700440F088044389
:1019C0002C82AC894EF6F3100440B088318908436C
:1019D000718908430443AC81AC8A4FF6FF40044050
:1019E000B0890443AC8201A8FFF7B6FB1F488742C9
:1019F00002D1DDF810A001E0DDF80CA0A88900F408
:101A0000004040B10AEBCA0000EB0A1031684900FF
:101A1000B0FBF1F807E00AEBCA0000EB0A103168EE
:101A20008900B0FBF1F86420B8FBF0F00401200954
:101A3000642101FB1089A88900F4004040B13220E4
:101A400000EBC900B0FBF1F000F00700044308E030
:101A5000322000EB09106421B0FBF1F000F00F0020
:101A600004432C8106B0BDE8F08700000038014037
:101A700001468888C0F308007047C1F308028280DD
:101A80007047000000B585B00020009001908DF8EF
:101A900008008DF80A008DF813008DF80B00002166
:101AA0008DF80C106A461148FEF7D5FB41F234213F
:101AB0000198884215D19DF80800042811D19DF89D
:101AC0000A0002280DD19DF80C009DF80B1040EA89
:101AD00001204DF6CA61884203D101200449086003
:101AE00002E000200249086005B000BD006400402B
:101AF0001800002070B50446002540F225512068EA
:101B0000FFF7FAFED0B140F225512068FFF7CCFE76
:101B10002068FFF7ADFFC5B2E08AFF2190FBF1F22C
:101B200001FB1200E082E08A411CE182A1680D54B1
:101B3000608B401C608300200149088070BD00005C
:101B40002400002009480A4908600A4848600A48F9
:101B50008860FF208881C881002008824882C8826E
:101B600008834883888205484862704700380140EE
:101B7000300000205800002057010020E50B00082D
:101B800000BFFEE770B504460D464FF4805109488A
:101B9000FEF77BFD7E2000EA44063046FFF78CFB13
:101BA0002846FFF789FB4FF480510248FEF76FFD8E
:101BB00070BD0000000C01400FB4054B10B503A927
:101BC000044A029800F018F810BC5DF814FB0000FD
:101BD000592300082C00002002E008C8121F08C189
:101BE000002AFAD170477047002001E001C1121F9E
:101BF000002AFBD1704700002DE9FF4F8DB09B46B6
:101C00000F460446002606E025280BD05A460F99B9
:101C10009047641C761C20780028F5D111B030461E
:101C2000BDE8F08F0025A8460122984900E0054351
:101C300014F8013F203B02FA03F00842F7D1207864
:101C40002E2817D114F8010F45F004052A280ED0CC
:101C50006FF02F022078A0F1300109290AD808EB93
:101C6000880102EB410100EB0108641CF2E757F820
:101C7000048B641C20786C280DD004DC4C2812D016
:101C80006A2811D104E074280DD07A280CD10AE01A
:101C900045F4001507E0617845F48015814202D1D2
:101CA000641C05F58015641C2278692A45D008DC7F
:101CB000002AB3D0582A69D0632A10D0642A08D1E8
:101CC0003BE0702A67D0732A13D0752A5CD0782A3B
:101CD0005CD010465A460F999047761CD3E017F80F
:101CE000040B8DF8000000208DF80100E94601206A
:101CF00003E057F8049B4FF0FF3069074FF00005F1
:101D000001D40AE06D1C45450DDA8542FADB19F86D
:101D100005100029F6D106E06D1C8542FCDB19F8A0
:101D200005100029F8D12E4404E019F8010B5A4699
:101D30000F9990476D1EF8D2A5E00A200021CDE949
:101D40000801C5F3025002280DD001CFC117031EB0
:101D500071F100030DDA4FF0000CD0EB0C006CEBCE
:101D600001012D2308E0FF1D27F00707F7E8020116
:101D7000EDE72B0504D52B238DF8283001233BE01C
:101D8000EB0739D02023F7E70A2000E010200021DC
:101D9000CDE9080107E01020002145F00405CDE958
:101DA00008014FF00808C5F3025002280FD001CFF8
:101DB00000214FF0000A2B071FD5702A0DD0DDE956
:101DC00008C38CF0100C5CEA030C0CD015E0FF1D6E
:101DD00027F00707F7E80201EBE740228DF82820FB
:101DE0004FF0010A0BE050EA010306D030238DF8D2
:101DF00028308DF8292002239A46582A04D024A29C
:101E00000DF120090B9209E026A2F9E7DDE908238C
:101E1000FEF7BCF90B9B9B5C09F8013D50EA0102FF
:101E2000F4D1ADEB090020300890680701D44FF0E1
:101E300001080899884502DDA8EB010000E00020B8
:101E40008046002506E00AA85A46405D0F99904753
:101E50006D1C761C5545F6DB04E030205A460F9980
:101E60009047761CB8F10001A8F10108F5DC05E007
:101E700019F8010B5A460F999047761C0899481E8D
:101E800008900029F4DC641CC5E600000928010064
:101E900030313233343536373839616263646566E0
:101EA00000000000303132333435363738394142A2
:101EB000434445460000000010B54820FFF79EFA55
:101EC000FFF77AFCFEF730FCFEF752FDFEF718FD37
:101ED000FFF7D6FBFEF7DAFFFEF76EFAFFF709F918
:101EE00010BD000001460D4A12884A434FF0E0231E
:101EF0005A6100229A6101221A6100BF4FF0E0226C
:101F0000106900F001021AB100F48032002AF5D005
:101F100000224FF0E0231A619A61704720000020F0
:101F200001460D4A12784A434FF0E0235A610022DD
:101F30009A6101221A6100BF4FF0E022106900F09F
:101F400001021AB100F48032002AF5D000224FF0CD
:101F5000E0231A619A6170471E00002010B504E06A
:101F6000601CC4B20120FFF7DBFF08210F48FEF719
:101F700083FB08B9502CF3DB642C01DB012010BD7E
:101F8000002404E0601CC4B20120FFF7C9FF08214F
:101F90000648FEF771FB012801D1502CF2DB642CBE
:101FA00001DB0120EBE70020E9E700000008014029
:101FB00010B5002404E0601CC4B20120FFF7B0FF9C
:101FC00008211048FEF758FB012801D1502CF2DB04
:101FD000002404E0601CC4B20120FFF7A1FF082127
:101FE0000848FEF749FB08B9502CF3DB2820FFF71F
:101FF00097FF08210348FEF73FFB08B9002010BDFA
:102000000120FCE70008014070B50024002505E030
:102010006006040EFFF7CCFF04436D1C082DF7DBB0
:10202000204670BD2DE9FC4105460E4617469846F0
:10203000002400F03BF8FFF791FF012802D117A020
:10204000FFF7BAFD002405E0FFF7DEFF0DF80400FE
:10205000601CC4B2052CF7DB9DF800009DF8011050
:1020600008449DF8021008449DF8031008449DF8A8
:10207000041088420FD19DF8000028709DF80100DF
:1020800030709DF8020038709DF8030088F8000059
:102090000020BDE8FC810120FBE700006368656368
:1020A0006B206661696C65640D0A000010B5FEF76F
:1020B00091F908210748FEF7E8FA1420FFF712FF0C
:1020C00008210448FEF7E3FA1E20FFF729FFFEF778
:1020D00065F910BD0008014010B5A020FEF716FB01
:1020E00008B9012010BDFEF7F5FB0020FAE700005B
:1020F0002DE9F04180460C461646FEF7D1FB2746F7
:10210000E11704EB11610912A02242EA4101C8B2B1
:10211000FEF798FBFEF722FB00B138E0E7B2F917B3
:1021200007EB11610912A7EB0121C8B2FEF78AFB88
:10213000FEF714FB00B12AE0FEF7B2FB2746E117D9
:1021400004EB11610912A02242EA4101491CC8B204
:10215000FEF778FBFEF702FB00B118E000250FE068
:10216000FEF724FB08F80500701EA84203D00020EB
:10217000FEF744FB02E00120FEF740FB681C85B23D
:10218000B542EDDBFEF7A6FB0120BDE8F081FEF7CE
:10219000A1FB02A0FFF710FD0020F6E75265616485
:1021A0002066696C64210D0A0000000010B586B03D
:1021B000142224A101A8FDF7D7FFFFF78DFF20B956
:1021C00025A0FFF7F9FC00BFFEE7002404E0012092
:1021D00026490855601C84B2FF2CF8DD4FF480724C
:1021E0000021224800F078F820B921A0FFF7E4FC94
:1021F00006B010BD24A0FFF7DFFC1420FFF772FE2D
:102200004FF4807200212748FFF772FF18B926A00B
:10221000FFF7D2FCECE729A0FFF7CEFC00240DE08D
:102220002048015D2BA0FFF7C7FC04F00F000F282A
:1022300002D127A0FFF7C0FC601C84B2FF2CEFDDA9
:1022400000BFD5E7AA3B2B4C451897F1E569889D5F
:102250003A62DECF38291ABB4E6F7420636865631B
:102260006B20454550524F4D210D0A005904002066
:10227000577269746520656570726F6D2065727242
:102280006F720D0A00000000577269746520656561
:1022900070726F6D2053756363657373A3A10D0A2C
:1022A00000000000590500205265616420656570DA
:1022B000726F6D206572726F720D0A0052656164F3
:1022C0002020656570726F6D20537563636573734D
:1022D0000D0A0000255820002DE9F04707468846E2
:1022E0009146464600242CE014B106F00700E8B9F8
:1022F000FEF7F0FA00250AE0FEF7D2FAA020FEF77A
:10230000A1FAFEF72BFA00B904E0681C85B2B5F516
:102310007A7FF1DB00BFB5F57A7F00D118E0F0B22B
:10232000FEF790FAFEF71AFA00B111E0385DFEF7F9
:1023300089FAFEF713FA00B10AE0701C86B2601C3D
:1023400084B24C45D0DBFEF7C5FA0120BDE8F0872A
:10235000FEF7C0FA0020F9E770B504460D46E1B279
:102360000548FFF78AFB00BF80210348FFF7B7FA53
:102370000028F9D0204670BD00380140FFF79CFDD1
:1023800019A0FFF719FC0322002123A0FFF714FC7A
:10239000FFF70CFF00210846FEF716FB23E0FEF7CF
:1023A000BFFC4FF400412448FEF76FF92348007842
:1023B00001280FD10020214908700221FEF704FBFB
:1023C00002210120FEF700FB1D4B1E4A1E491F483B
:1023D000FFF728FE4FF6FF711748FEF758F9012165
:1023E0000220FEF7F1FADAE7746869732069732056
:1023F000204A49452E434149202D2D3E3E2053542D
:102400004D333220746573742070726F6772616D22
:102410002E2E2E2E0A0D0000444556454C4F5020BE
:1024200056455253494F4E204953203A562E256463
:102430002E25640A0D000000000801402200002043
:10244000290000202800002027000020260000206E
:1024500010B503460C46002100BF02E0605C5854F2
:10246000491C9142FADB104610BD00C1814001C0F9
:10247000804101C0804100C1814001C0804100C154
:10248000814000C1814001C0804101C0804100C144
:10249000814000C1814001C0804100C1814001C034
:1024A000804101C0804100C1814001C0804100C124
:1024B000814000C1814001C0804100C1814001C014
:1024C000804101C0804100C1814000C1814001C004
:1024D000804101C0804100C1814001C0804100C1F4
:1024E000814000C1814001C0804101C0804100C1E4
:1024F000814000C1814001C0804100C1814001C0D4
:10250000804101C0804100C1814000C1814001C0C3
:10251000804101C0804100C1814001C0804100C1B3
:10252000814000C1814001C0804100C1814001C0A3
:10253000804101C0804100C1814001C0804100C193
:10254000814000C1814001C0804101C0804100C183
:10255000814000C1814001C0804100C1814001C073
:10256000804101C0804100C1814000C0C101C3035E
:1025700002C2C60607C705C5C404CC0C0DCD0FCFDB
:10258000CE0E0ACACB0BC90908C8D81819D91BDB4B
:10259000DA1A1EDEDF1FDD1D1CDC14D4D515D7179B
:1025A00016D6D21213D311D1D010F03031F133F34B
:1025B000F23236F6F737F53534F43CFCFD3DFF3F9B
:1025C0003EFEFA3A3BFB39F9F83828E8E929EB2BCB
:1025D0002AEAEE2E2FEF2DEDEC2CE42425E527E75B
:1025E000E62622E2E323E12120E0A06061A163A3CB
:1025F000A26266A6A767A56564A46CACAD6DAF6F5B
:102600006EAEAA6A6BAB69A9A86878B8B979BB7BCA
:102610007ABABE7E7FBF7DBDBC7CB47475B577B71A
:10262000B67672B2B373B17170B05090915193534A
:10263000529296565797559594549C5C5D9D5F9F1A
:102640009E5E5A9A9B5B99595898884849894B8B4A
:102650008A4A4E8E8F4F8D4D4C8C448485458747DA
:102660004686824243834181804000008C260008D8
:102670000000002030000000D81B0008BC26000825
:1026800030000020300A0000E81B000800000000B5
:1026900001020304010203040607080902040608F4
:1026A000000000000000000000000000000000002A
:0C26B0000000000000000000000000001E
:0400000508000131BD
:00000001FF
